{
  "_format": "hh-sol-artifact-1",
  "contractName": "MyNFT",
  "sourceName": "contracts/MyNFT.sol",
  "abi": [
    {
      "inputs": [],
      "stateMutability": "nonpayable",
      "type": "constructor"
    },
    {
      "anonymous": false,
      "inputs": [
        {
          "indexed": true,
          "internalType": "address",
          "name": "owner",
          "type": "address"
        },
        {
          "indexed": true,
          "internalType": "address",
          "name": "approved",
          "type": "address"
        },
        {
          "indexed": true,
          "internalType": "uint256",
          "name": "tokenId",
          "type": "uint256"
        }
      ],
      "name": "Approval",
      "type": "event"
    },
    {
      "anonymous": false,
      "inputs": [
        {
          "indexed": true,
          "internalType": "address",
          "name": "owner",
          "type": "address"
        },
        {
          "indexed": true,
          "internalType": "address",
          "name": "operator",
          "type": "address"
        },
        {
          "indexed": false,
          "internalType": "bool",
          "name": "approved",
          "type": "bool"
        }
      ],
      "name": "ApprovalForAll",
      "type": "event"
    },
    {
      "anonymous": false,
      "inputs": [
        {
          "indexed": true,
          "internalType": "address",
          "name": "previousOwner",
          "type": "address"
        },
        {
          "indexed": true,
          "internalType": "address",
          "name": "newOwner",
          "type": "address"
        }
      ],
      "name": "OwnershipTransferred",
      "type": "event"
    },
    {
      "anonymous": false,
      "inputs": [
        {
          "indexed": true,
          "internalType": "address",
          "name": "from",
          "type": "address"
        },
        {
          "indexed": true,
          "internalType": "address",
          "name": "to",
          "type": "address"
        },
        {
          "indexed": true,
          "internalType": "uint256",
          "name": "tokenId",
          "type": "uint256"
        }
      ],
      "name": "Transfer",
      "type": "event"
    },
    {
      "inputs": [
        {
          "internalType": "address",
          "name": "to",
          "type": "address"
        },
        {
          "internalType": "uint256",
          "name": "tokenId",
          "type": "uint256"
        }
      ],
      "name": "approve",
      "outputs": [],
      "stateMutability": "nonpayable",
      "type": "function"
    },
    {
      "inputs": [
        {
          "internalType": "address",
          "name": "owner",
          "type": "address"
        }
      ],
      "name": "balanceOf",
      "outputs": [
        {
          "internalType": "uint256",
          "name": "",
          "type": "uint256"
        }
      ],
      "stateMutability": "view",
      "type": "function"
    },
    {
      "inputs": [
        {
          "internalType": "uint256",
          "name": "tokenId",
          "type": "uint256"
        }
      ],
      "name": "getApproved",
      "outputs": [
        {
          "internalType": "address",
          "name": "",
          "type": "address"
        }
      ],
      "stateMutability": "view",
      "type": "function"
    },
    {
      "inputs": [],
      "name": "getBalance",
      "outputs": [
        {
          "internalType": "uint256",
          "name": "",
          "type": "uint256"
        }
      ],
      "stateMutability": "view",
      "type": "function"
    },
    {
      "inputs": [
        {
          "internalType": "address",
          "name": "owner",
          "type": "address"
        },
        {
          "internalType": "address",
          "name": "operator",
          "type": "address"
        }
      ],
      "name": "isApprovedForAll",
      "outputs": [
        {
          "internalType": "bool",
          "name": "",
          "type": "bool"
        }
      ],
      "stateMutability": "view",
      "type": "function"
    },
    {
      "inputs": [],
      "name": "mintNFT",
      "outputs": [],
      "stateMutability": "payable",
      "type": "function"
    },
    {
      "inputs": [],
      "name": "name",
      "outputs": [
        {
          "internalType": "string",
          "name": "",
          "type": "string"
        }
      ],
      "stateMutability": "view",
      "type": "function"
    },
    {
      "inputs": [],
      "name": "owner",
      "outputs": [
        {
          "internalType": "address",
          "name": "",
          "type": "address"
        }
      ],
      "stateMutability": "view",
      "type": "function"
    },
    {
      "inputs": [
        {
          "internalType": "uint256",
          "name": "tokenId",
          "type": "uint256"
        }
      ],
      "name": "ownerOf",
      "outputs": [
        {
          "internalType": "address",
          "name": "",
          "type": "address"
        }
      ],
      "stateMutability": "view",
      "type": "function"
    },
    {
      "inputs": [],
      "name": "renounceOwnership",
      "outputs": [],
      "stateMutability": "nonpayable",
      "type": "function"
    },
    {
      "inputs": [
        {
          "internalType": "address",
          "name": "from",
          "type": "address"
        },
        {
          "internalType": "address",
          "name": "to",
          "type": "address"
        },
        {
          "internalType": "uint256",
          "name": "tokenId",
          "type": "uint256"
        }
      ],
      "name": "safeTransferFrom",
      "outputs": [],
      "stateMutability": "nonpayable",
      "type": "function"
    },
    {
      "inputs": [
        {
          "internalType": "address",
          "name": "from",
          "type": "address"
        },
        {
          "internalType": "address",
          "name": "to",
          "type": "address"
        },
        {
          "internalType": "uint256",
          "name": "tokenId",
          "type": "uint256"
        },
        {
          "internalType": "bytes",
          "name": "data",
          "type": "bytes"
        }
      ],
      "name": "safeTransferFrom",
      "outputs": [],
      "stateMutability": "nonpayable",
      "type": "function"
    },
    {
      "inputs": [
        {
          "internalType": "address",
          "name": "operator",
          "type": "address"
        },
        {
          "internalType": "bool",
          "name": "approved",
          "type": "bool"
        }
      ],
      "name": "setApprovalForAll",
      "outputs": [],
      "stateMutability": "nonpayable",
      "type": "function"
    },
    {
      "inputs": [
        {
          "internalType": "bytes4",
          "name": "interfaceId",
          "type": "bytes4"
        }
      ],
      "name": "supportsInterface",
      "outputs": [
        {
          "internalType": "bool",
          "name": "",
          "type": "bool"
        }
      ],
      "stateMutability": "view",
      "type": "function"
    },
    {
      "inputs": [],
      "name": "symbol",
      "outputs": [
        {
          "internalType": "string",
          "name": "",
          "type": "string"
        }
      ],
      "stateMutability": "view",
      "type": "function"
    },
    {
      "inputs": [],
      "name": "tokenSupply",
      "outputs": [
        {
          "internalType": "uint256",
          "name": "",
          "type": "uint256"
        }
      ],
      "stateMutability": "view",
      "type": "function"
    },
    {
      "inputs": [
        {
          "internalType": "uint256",
          "name": "tokenId",
          "type": "uint256"
        }
      ],
      "name": "tokenURI",
      "outputs": [
        {
          "internalType": "string",
          "name": "",
          "type": "string"
        }
      ],
      "stateMutability": "view",
      "type": "function"
    },
    {
      "inputs": [
        {
          "internalType": "address",
          "name": "from",
          "type": "address"
        },
        {
          "internalType": "address",
          "name": "to",
          "type": "address"
        },
        {
          "internalType": "uint256",
          "name": "tokenId",
          "type": "uint256"
        }
      ],
      "name": "transferFrom",
      "outputs": [],
      "stateMutability": "nonpayable",
      "type": "function"
    },
    {
      "inputs": [
        {
          "internalType": "address",
          "name": "newOwner",
          "type": "address"
        }
      ],
      "name": "transferOwnership",
      "outputs": [],
      "stateMutability": "nonpayable",
      "type": "function"
    },
    {
      "inputs": [],
      "name": "withdraw",
      "outputs": [],
      "stateMutability": "nonpayable",
      "type": "function"
    }
  ],
  "bytecode": "0x608060405260006007553480156200001657600080fd5b506040518060400160405280600881526020017f5a4f4f574f524c440000000000000000000000000000000000000000000000008152506040518060400160405280600381526020017f5a4f4f0000000000000000000000000000000000000000000000000000000000815250816000908162000094919062000417565b508060019081620000a6919062000417565b505050620000c9620000bd620000cf60201b60201c565b620000d760201b60201c565b620004fe565b600033905090565b6000600660009054906101000a900473ffffffffffffffffffffffffffffffffffffffff16905081600660006101000a81548173ffffffffffffffffffffffffffffffffffffffff021916908373ffffffffffffffffffffffffffffffffffffffff1602179055508173ffffffffffffffffffffffffffffffffffffffff168173ffffffffffffffffffffffffffffffffffffffff167f8be0079c531659141344cd1fd0a4f28419497f9722a3daafe3b4186f6b6457e060405160405180910390a35050565b600081519050919050565b7f4e487b7100000000000000000000000000000000000000000000000000000000600052604160045260246000fd5b7f4e487b7100000000000000000000000000000000000000000000000000000000600052602260045260246000fd5b600060028204905060018216806200021f57607f821691505b602082108103620002355762000234620001d7565b5b50919050565b60008190508160005260206000209050919050565b60006020601f8301049050919050565b600082821b905092915050565b6000600883026200029f7fffffffffffffffffffffffffffffffffffffffffffffffffffffffffffffffff8262000260565b620002ab868362000260565b95508019841693508086168417925050509392505050565b6000819050919050565b6000819050919050565b6000620002f8620002f2620002ec84620002c3565b620002cd565b620002c3565b9050919050565b6000819050919050565b6200031483620002d7565b6200032c6200032382620002ff565b8484546200026d565b825550505050565b600090565b6200034362000334565b6200035081848462000309565b505050565b5b8181101562000378576200036c60008262000339565b60018101905062000356565b5050565b601f821115620003c75762000391816200023b565b6200039c8462000250565b81016020851015620003ac578190505b620003c4620003bb8562000250565b83018262000355565b50505b505050565b600082821c905092915050565b6000620003ec60001984600802620003cc565b1980831691505092915050565b6000620004078383620003d9565b9150826002028217905092915050565b62000422826200019d565b67ffffffffffffffff8111156200043e576200043d620001a8565b5b6200044a825462000206565b620004578282856200037c565b600060209050601f8311600181146200048f57600084156200047a578287015190505b620004868582620003f9565b865550620004f6565b601f1984166200049f866200023b565b60005b82811015620004c957848901518255600182019150602085019450602081019050620004a2565b86831015620004e95784890151620004e5601f891682620003d9565b8355505b6001600288020188555050505b505050505050565b612c13806200050e6000396000f3fe60806040526004361061011f5760003560e01c806370a08231116100a0578063a22cb46511610064578063a22cb465146103a2578063b88d4fde146103cb578063c87b56dd146103f4578063e985e9c514610431578063f2fde38b1461046e5761011f565b806370a08231146102cd578063715018a61461030a5780637824407f146103215780638da5cb5b1461034c57806395d89b41146103775761011f565b806314f710fe116100e757806314f710fe1461021d57806323b872dd146102275780633ccfd60b1461025057806342842e0e146102675780636352211e146102905761011f565b806301ffc9a71461012457806306fdde0314610161578063081812fc1461018c578063095ea7b3146101c957806312065fe0146101f2575b600080fd5b34801561013057600080fd5b5061014b60048036038101906101469190611ca5565b610497565b6040516101589190611ced565b60405180910390f35b34801561016d57600080fd5b50610176610579565b6040516101839190611d98565b60405180910390f35b34801561019857600080fd5b506101b360048036038101906101ae9190611df0565b61060b565b6040516101c09190611e5e565b60405180910390f35b3480156101d557600080fd5b506101f060048036038101906101eb9190611ea5565b610651565b005b3480156101fe57600080fd5b50610207610768565b6040516102149190611ef4565b60405180910390f35b610225610770565b005b34801561023357600080fd5b5061024e60048036038101906102499190611f0f565b610796565b005b34801561025c57600080fd5b506102656107f6565b005b34801561027357600080fd5b5061028e60048036038101906102899190611f0f565b610847565b005b34801561029c57600080fd5b506102b760048036038101906102b29190611df0565b610867565b6040516102c49190611e5e565b60405180910390f35b3480156102d957600080fd5b506102f460048036038101906102ef9190611f62565b6108ed565b6040516103019190611ef4565b60405180910390f35b34801561031657600080fd5b5061031f6109a4565b005b34801561032d57600080fd5b506103366109b8565b6040516103439190611ef4565b60405180910390f35b34801561035857600080fd5b506103616109be565b60405161036e9190611e5e565b60405180910390f35b34801561038357600080fd5b5061038c6109e8565b6040516103999190611d98565b60405180910390f35b3480156103ae57600080fd5b506103c960048036038101906103c49190611fbb565b610a7a565b005b3480156103d757600080fd5b506103f260048036038101906103ed9190612130565b610a90565b005b34801561040057600080fd5b5061041b60048036038101906104169190611df0565b610af2565b6040516104289190611d98565b60405180910390f35b34801561043d57600080fd5b50610458600480360381019061045391906121b3565b610b60565b6040516104659190611ced565b60405180910390f35b34801561047a57600080fd5b5061049560048036038101906104909190611f62565b610bf4565b005b60007f80ac58cd000000000000000000000000000000000000000000000000000000007bffffffffffffffffffffffffffffffffffffffffffffffffffffffff1916827bffffffffffffffffffffffffffffffffffffffffffffffffffffffff1916148061056257507f5b5e139f000000000000000000000000000000000000000000000000000000007bffffffffffffffffffffffffffffffffffffffffffffffffffffffff1916827bffffffffffffffffffffffffffffffffffffffffffffffffffffffff1916145b80610572575061057182610c77565b5b9050919050565b60606000805461058890612222565b80601f01602080910402602001604051908101604052809291908181526020018280546105b490612222565b80156106015780601f106105d657610100808354040283529160200191610601565b820191906000526020600020905b8154815290600101906020018083116105e457829003601f168201915b5050505050905090565b600061061682610ce1565b6004600083815260200190815260200160002060009054906101000a900473ffffffffffffffffffffffffffffffffffffffff169050919050565b600061065c82610867565b90508073ffffffffffffffffffffffffffffffffffffffff168373ffffffffffffffffffffffffffffffffffffffff16036106cc576040517f08c379a00000000000000000000000000000000000000000000000000000000081526004016106c3906122c5565b60405180910390fd5b8073ffffffffffffffffffffffffffffffffffffffff166106eb610d2c565b73ffffffffffffffffffffffffffffffffffffffff16148061071a575061071981610714610d2c565b610b60565b5b610759576040517f08c379a000000000000000000000000000000000000000000000000000000000815260040161075090612357565b60405180910390fd5b6107638383610d34565b505050565b600047905090565b60076000815480929190610783906123a6565b919050555061079433600754610ded565b565b6107a76107a1610d2c565b8261100a565b6107e6576040517f08c379a00000000000000000000000000000000000000000000000000000000081526004016107dd90612460565b60405180910390fd5b6107f183838361109f565b505050565b6107fe611398565b3373ffffffffffffffffffffffffffffffffffffffff166108fc479081150290604051600060405180830381858888f19350505050158015610844573d6000803e3d6000fd5b50565b61086283838360405180602001604052806000815250610a90565b505050565b60008061087383611416565b9050600073ffffffffffffffffffffffffffffffffffffffff168173ffffffffffffffffffffffffffffffffffffffff16036108e4576040517f08c379a00000000000000000000000000000000000000000000000000000000081526004016108db906124cc565b60405180910390fd5b80915050919050565b60008073ffffffffffffffffffffffffffffffffffffffff168273ffffffffffffffffffffffffffffffffffffffff160361095d576040517f08c379a00000000000000000000000000000000000000000000000000000000081526004016109549061255e565b60405180910390fd5b600360008373ffffffffffffffffffffffffffffffffffffffff1673ffffffffffffffffffffffffffffffffffffffff168152602001908152602001600020549050919050565b6109ac611398565b6109b66000611453565b565b60075481565b6000600660009054906101000a900473ffffffffffffffffffffffffffffffffffffffff16905090565b6060600180546109f790612222565b80601f0160208091040260200160405190810160405280929190818152602001828054610a2390612222565b8015610a705780601f10610a4557610100808354040283529160200191610a70565b820191906000526020600020905b815481529060010190602001808311610a5357829003601f168201915b5050505050905090565b610a8c610a85610d2c565b8383611519565b5050565b610aa1610a9b610d2c565b8361100a565b610ae0576040517f08c379a0000000000000000000000000000000000000000000000000000000008152600401610ad790612460565b60405180910390fd5b610aec84848484611685565b50505050565b6060610afd82610ce1565b6000610b076116e1565b90506000610b1484611701565b90506000825111610b345760405180602001604052806000815250610b57565b8181604051602001610b47929190612606565b6040516020818303038152906040525b92505050919050565b6000600560008473ffffffffffffffffffffffffffffffffffffffff1673ffffffffffffffffffffffffffffffffffffffff16815260200190815260200160002060008373ffffffffffffffffffffffffffffffffffffffff1673ffffffffffffffffffffffffffffffffffffffff16815260200190815260200160002060009054906101000a900460ff16905092915050565b610bfc611398565b600073ffffffffffffffffffffffffffffffffffffffff168173ffffffffffffffffffffffffffffffffffffffff1603610c6b576040517f08c379a0000000000000000000000000000000000000000000000000000000008152600401610c62906126a7565b60405180910390fd5b610c7481611453565b50565b60007f01ffc9a7000000000000000000000000000000000000000000000000000000007bffffffffffffffffffffffffffffffffffffffffffffffffffffffff1916827bffffffffffffffffffffffffffffffffffffffffffffffffffffffff1916149050919050565b610cea816117cf565b610d29576040517f08c379a0000000000000000000000000000000000000000000000000000000008152600401610d20906124cc565b60405180910390fd5b50565b600033905090565b816004600083815260200190815260200160002060006101000a81548173ffffffffffffffffffffffffffffffffffffffff021916908373ffffffffffffffffffffffffffffffffffffffff160217905550808273ffffffffffffffffffffffffffffffffffffffff16610da783610867565b73ffffffffffffffffffffffffffffffffffffffff167f8c5be1e5ebec7d5bd14f71427d1e84f3dd0314c0f7b2291e5b200ac8c7c3b92560405160405180910390a45050565b600073ffffffffffffffffffffffffffffffffffffffff168273ffffffffffffffffffffffffffffffffffffffff1603610e5c576040517f08c379a0000000000000000000000000000000000000000000000000000000008152600401610e5390612713565b60405180910390fd5b610e65816117cf565b15610ea5576040517f08c379a0000000000000000000000000000000000000000000000000000000008152600401610e9c9061277f565b60405180910390fd5b610eb3600083836001611810565b610ebc816117cf565b15610efc576040517f08c379a0000000000000000000000000000000000000000000000000000000008152600401610ef39061277f565b60405180910390fd5b6001600360008473ffffffffffffffffffffffffffffffffffffffff1673ffffffffffffffffffffffffffffffffffffffff16815260200190815260200160002060008282540192505081905550816002600083815260200190815260200160002060006101000a81548173ffffffffffffffffffffffffffffffffffffffff021916908373ffffffffffffffffffffffffffffffffffffffff160217905550808273ffffffffffffffffffffffffffffffffffffffff16600073ffffffffffffffffffffffffffffffffffffffff167fddf252ad1be2c89b69c2b068fc378daa952ba7f163c4a11628f55a4df523b3ef60405160405180910390a4611006600083836001611936565b5050565b60008061101683610867565b90508073ffffffffffffffffffffffffffffffffffffffff168473ffffffffffffffffffffffffffffffffffffffff16148061105857506110578185610b60565b5b8061109657508373ffffffffffffffffffffffffffffffffffffffff1661107e8461060b565b73ffffffffffffffffffffffffffffffffffffffff16145b91505092915050565b8273ffffffffffffffffffffffffffffffffffffffff166110bf82610867565b73ffffffffffffffffffffffffffffffffffffffff1614611115576040517f08c379a000000000000000000000000000000000000000000000000000000000815260040161110c90612811565b60405180910390fd5b600073ffffffffffffffffffffffffffffffffffffffff168273ffffffffffffffffffffffffffffffffffffffff1603611184576040517f08c379a000000000000000000000000000000000000000000000000000000000815260040161117b906128a3565b60405180910390fd5b6111918383836001611810565b8273ffffffffffffffffffffffffffffffffffffffff166111b182610867565b73ffffffffffffffffffffffffffffffffffffffff1614611207576040517f08c379a00000000000000000000000000000000000000000000000000000000081526004016111fe90612811565b60405180910390fd5b6004600082815260200190815260200160002060006101000a81549073ffffffffffffffffffffffffffffffffffffffff02191690556001600360008573ffffffffffffffffffffffffffffffffffffffff1673ffffffffffffffffffffffffffffffffffffffff168152602001908152602001600020600082825403925050819055506001600360008473ffffffffffffffffffffffffffffffffffffffff1673ffffffffffffffffffffffffffffffffffffffff16815260200190815260200160002060008282540192505081905550816002600083815260200190815260200160002060006101000a81548173ffffffffffffffffffffffffffffffffffffffff021916908373ffffffffffffffffffffffffffffffffffffffff160217905550808273ffffffffffffffffffffffffffffffffffffffff168473ffffffffffffffffffffffffffffffffffffffff167fddf252ad1be2c89b69c2b068fc378daa952ba7f163c4a11628f55a4df523b3ef60405160405180910390a46113938383836001611936565b505050565b6113a0610d2c565b73ffffffffffffffffffffffffffffffffffffffff166113be6109be565b73ffffffffffffffffffffffffffffffffffffffff1614611414576040517f08c379a000000000000000000000000000000000000000000000000000000000815260040161140b9061290f565b60405180910390fd5b565b60006002600083815260200190815260200160002060009054906101000a900473ffffffffffffffffffffffffffffffffffffffff169050919050565b6000600660009054906101000a900473ffffffffffffffffffffffffffffffffffffffff16905081600660006101000a81548173ffffffffffffffffffffffffffffffffffffffff021916908373ffffffffffffffffffffffffffffffffffffffff1602179055508173ffffffffffffffffffffffffffffffffffffffff168173ffffffffffffffffffffffffffffffffffffffff167f8be0079c531659141344cd1fd0a4f28419497f9722a3daafe3b4186f6b6457e060405160405180910390a35050565b8173ffffffffffffffffffffffffffffffffffffffff168373ffffffffffffffffffffffffffffffffffffffff1603611587576040517f08c379a000000000000000000000000000000000000000000000000000000000815260040161157e9061297b565b60405180910390fd5b80600560008573ffffffffffffffffffffffffffffffffffffffff1673ffffffffffffffffffffffffffffffffffffffff16815260200190815260200160002060008473ffffffffffffffffffffffffffffffffffffffff1673ffffffffffffffffffffffffffffffffffffffff16815260200190815260200160002060006101000a81548160ff0219169083151502179055508173ffffffffffffffffffffffffffffffffffffffff168373ffffffffffffffffffffffffffffffffffffffff167f17307eab39ab6107e8899845ad3d59bd9653f200f220920489ca2b5937696c31836040516116789190611ced565b60405180910390a3505050565b61169084848461109f565b61169c8484848461193c565b6116db576040517f08c379a00000000000000000000000000000000000000000000000000000000081526004016116d290612a0d565b60405180910390fd5b50505050565b6060604051806060016040528060368152602001612ba860369139905090565b60606000600161171084611ac3565b01905060008167ffffffffffffffff81111561172f5761172e612005565b5b6040519080825280601f01601f1916602001820160405280156117615781602001600182028036833780820191505090505b509050600082602001820190505b6001156117c4578080600190039150507f3031323334353637383961626364656600000000000000000000000000000000600a86061a8153600a85816117b8576117b7612a2d565b5b0494506000850361176f575b819350505050919050565b60008073ffffffffffffffffffffffffffffffffffffffff166117f183611416565b73ffffffffffffffffffffffffffffffffffffffff1614159050919050565b600181111561193057600073ffffffffffffffffffffffffffffffffffffffff168473ffffffffffffffffffffffffffffffffffffffff16146118a45780600360008673ffffffffffffffffffffffffffffffffffffffff1673ffffffffffffffffffffffffffffffffffffffff168152602001908152602001600020600082825461189c9190612a5c565b925050819055505b600073ffffffffffffffffffffffffffffffffffffffff168373ffffffffffffffffffffffffffffffffffffffff161461192f5780600360008573ffffffffffffffffffffffffffffffffffffffff1673ffffffffffffffffffffffffffffffffffffffff16815260200190815260200160002060008282546119279190612a90565b925050819055505b5b50505050565b50505050565b600061195d8473ffffffffffffffffffffffffffffffffffffffff16611c16565b15611ab6578373ffffffffffffffffffffffffffffffffffffffff1663150b7a02611986610d2c565b8786866040518563ffffffff1660e01b81526004016119a89493929190612b19565b6020604051808303816000875af19250505080156119e457506040513d601f19601f820116820180604052508101906119e19190612b7a565b60015b611a66573d8060008114611a14576040519150601f19603f3d011682016040523d82523d6000602084013e611a19565b606091505b506000815103611a5e576040517f08c379a0000000000000000000000000000000000000000000000000000000008152600401611a5590612a0d565b60405180910390fd5b805181602001fd5b63150b7a0260e01b7bffffffffffffffffffffffffffffffffffffffffffffffffffffffff1916817bffffffffffffffffffffffffffffffffffffffffffffffffffffffff191614915050611abb565b600190505b949350505050565b600080600090507a184f03e93ff9f4daa797ed6e38ed64bf6a1f0100000000000000008310611b21577a184f03e93ff9f4daa797ed6e38ed64bf6a1f0100000000000000008381611b1757611b16612a2d565b5b0492506040810190505b6d04ee2d6d415b85acef81000000008310611b5e576d04ee2d6d415b85acef81000000008381611b5457611b53612a2d565b5b0492506020810190505b662386f26fc100008310611b8d57662386f26fc100008381611b8357611b82612a2d565b5b0492506010810190505b6305f5e1008310611bb6576305f5e1008381611bac57611bab612a2d565b5b0492506008810190505b6127108310611bdb576127108381611bd157611bd0612a2d565b5b0492506004810190505b60648310611bfe5760648381611bf457611bf3612a2d565b5b0492506002810190505b600a8310611c0d576001810190505b80915050919050565b6000808273ffffffffffffffffffffffffffffffffffffffff163b119050919050565b6000604051905090565b600080fd5b600080fd5b60007fffffffff0000000000000000000000000000000000000000000000000000000082169050919050565b611c8281611c4d565b8114611c8d57600080fd5b50565b600081359050611c9f81611c79565b92915050565b600060208284031215611cbb57611cba611c43565b5b6000611cc984828501611c90565b91505092915050565b60008115159050919050565b611ce781611cd2565b82525050565b6000602082019050611d026000830184611cde565b92915050565b600081519050919050565b600082825260208201905092915050565b60005b83811015611d42578082015181840152602081019050611d27565b60008484015250505050565b6000601f19601f8301169050919050565b6000611d6a82611d08565b611d748185611d13565b9350611d84818560208601611d24565b611d8d81611d4e565b840191505092915050565b60006020820190508181036000830152611db28184611d5f565b905092915050565b6000819050919050565b611dcd81611dba565b8114611dd857600080fd5b50565b600081359050611dea81611dc4565b92915050565b600060208284031215611e0657611e05611c43565b5b6000611e1484828501611ddb565b91505092915050565b600073ffffffffffffffffffffffffffffffffffffffff82169050919050565b6000611e4882611e1d565b9050919050565b611e5881611e3d565b82525050565b6000602082019050611e736000830184611e4f565b92915050565b611e8281611e3d565b8114611e8d57600080fd5b50565b600081359050611e9f81611e79565b92915050565b60008060408385031215611ebc57611ebb611c43565b5b6000611eca85828601611e90565b9250506020611edb85828601611ddb565b9150509250929050565b611eee81611dba565b82525050565b6000602082019050611f096000830184611ee5565b92915050565b600080600060608486031215611f2857611f27611c43565b5b6000611f3686828701611e90565b9350506020611f4786828701611e90565b9250506040611f5886828701611ddb565b9150509250925092565b600060208284031215611f7857611f77611c43565b5b6000611f8684828501611e90565b91505092915050565b611f9881611cd2565b8114611fa357600080fd5b50565b600081359050611fb581611f8f565b92915050565b60008060408385031215611fd257611fd1611c43565b5b6000611fe085828601611e90565b9250506020611ff185828601611fa6565b9150509250929050565b600080fd5b600080fd5b7f4e487b7100000000000000000000000000000000000000000000000000000000600052604160045260246000fd5b61203d82611d4e565b810181811067ffffffffffffffff8211171561205c5761205b612005565b5b80604052505050565b600061206f611c39565b905061207b8282612034565b919050565b600067ffffffffffffffff82111561209b5761209a612005565b5b6120a482611d4e565b9050602081019050919050565b82818337600083830152505050565b60006120d36120ce84612080565b612065565b9050828152602081018484840111156120ef576120ee612000565b5b6120fa8482856120b1565b509392505050565b600082601f83011261211757612116611ffb565b5b81356121278482602086016120c0565b91505092915050565b6000806000806080858703121561214a57612149611c43565b5b600061215887828801611e90565b945050602061216987828801611e90565b935050604061217a87828801611ddb565b925050606085013567ffffffffffffffff81111561219b5761219a611c48565b5b6121a787828801612102565b91505092959194509250565b600080604083850312156121ca576121c9611c43565b5b60006121d885828601611e90565b92505060206121e985828601611e90565b9150509250929050565b7f4e487b7100000000000000000000000000000000000000000000000000000000600052602260045260246000fd5b6000600282049050600182168061223a57607f821691505b60208210810361224d5761224c6121f3565b5b50919050565b7f4552433732313a20617070726f76616c20746f2063757272656e74206f776e6560008201527f7200000000000000000000000000000000000000000000000000000000000000602082015250565b60006122af602183611d13565b91506122ba82612253565b604082019050919050565b600060208201905081810360008301526122de816122a2565b9050919050565b7f4552433732313a20617070726f76652063616c6c6572206973206e6f7420746f60008201527f6b656e206f776e6572206f7220617070726f76656420666f7220616c6c000000602082015250565b6000612341603d83611d13565b915061234c826122e5565b604082019050919050565b6000602082019050818103600083015261237081612334565b9050919050565b7f4e487b7100000000000000000000000000000000000000000000000000000000600052601160045260246000fd5b60006123b182611dba565b91507fffffffffffffffffffffffffffffffffffffffffffffffffffffffffffffffff82036123e3576123e2612377565b5b600182019050919050565b7f4552433732313a2063616c6c6572206973206e6f7420746f6b656e206f776e6560008201527f72206f7220617070726f76656400000000000000000000000000000000000000602082015250565b600061244a602d83611d13565b9150612455826123ee565b604082019050919050565b600060208201905081810360008301526124798161243d565b9050919050565b7f4552433732313a20696e76616c696420746f6b656e2049440000000000000000600082015250565b60006124b6601883611d13565b91506124c182612480565b602082019050919050565b600060208201905081810360008301526124e5816124a9565b9050919050565b7f4552433732313a2061646472657373207a65726f206973206e6f74206120766160008201527f6c6964206f776e65720000000000000000000000000000000000000000000000602082015250565b6000612548602983611d13565b9150612553826124ec565b604082019050919050565b600060208201905081810360008301526125778161253b565b9050919050565b600081905092915050565b600061259482611d08565b61259e818561257e565b93506125ae818560208601611d24565b80840191505092915050565b7f2e6a736f6e000000000000000000000000000000000000000000000000000000600082015250565b60006125f060058361257e565b91506125fb826125ba565b600582019050919050565b60006126128285612589565b915061261e8284612589565b9150612629826125e3565b91508190509392505050565b7f4f776e61626c653a206e6577206f776e657220697320746865207a65726f206160008201527f6464726573730000000000000000000000000000000000000000000000000000602082015250565b6000612691602683611d13565b915061269c82612635565b604082019050919050565b600060208201905081810360008301526126c081612684565b9050919050565b7f4552433732313a206d696e7420746f20746865207a65726f2061646472657373600082015250565b60006126fd602083611d13565b9150612708826126c7565b602082019050919050565b6000602082019050818103600083015261272c816126f0565b9050919050565b7f4552433732313a20746f6b656e20616c7265616479206d696e74656400000000600082015250565b6000612769601c83611d13565b915061277482612733565b602082019050919050565b600060208201905081810360008301526127988161275c565b9050919050565b7f4552433732313a207472616e736665722066726f6d20696e636f72726563742060008201527f6f776e6572000000000000000000000000000000000000000000000000000000602082015250565b60006127fb602583611d13565b91506128068261279f565b604082019050919050565b6000602082019050818103600083015261282a816127ee565b9050919050565b7f4552433732313a207472616e7366657220746f20746865207a65726f2061646460008201527f7265737300000000000000000000000000000000000000000000000000000000602082015250565b600061288d602483611d13565b915061289882612831565b604082019050919050565b600060208201905081810360008301526128bc81612880565b9050919050565b7f4f776e61626c653a2063616c6c6572206973206e6f7420746865206f776e6572600082015250565b60006128f9602083611d13565b9150612904826128c3565b602082019050919050565b60006020820190508181036000830152612928816128ec565b9050919050565b7f4552433732313a20617070726f766520746f2063616c6c657200000000000000600082015250565b6000612965601983611d13565b91506129708261292f565b602082019050919050565b6000602082019050818103600083015261299481612958565b9050919050565b7f4552433732313a207472616e7366657220746f206e6f6e20455243373231526560008201527f63656976657220696d706c656d656e7465720000000000000000000000000000602082015250565b60006129f7603283611d13565b9150612a028261299b565b604082019050919050565b60006020820190508181036000830152612a26816129ea565b9050919050565b7f4e487b7100000000000000000000000000000000000000000000000000000000600052601260045260246000fd5b6000612a6782611dba565b9150612a7283611dba565b9250828203905081811115612a8a57612a89612377565b5b92915050565b6000612a9b82611dba565b9150612aa683611dba565b9250828201905080821115612abe57612abd612377565b5b92915050565b600081519050919050565b600082825260208201905092915050565b6000612aeb82612ac4565b612af58185612acf565b9350612b05818560208601611d24565b612b0e81611d4e565b840191505092915050565b6000608082019050612b2e6000830187611e4f565b612b3b6020830186611e4f565b612b486040830185611ee5565b8181036060830152612b5a8184612ae0565b905095945050505050565b600081519050612b7481611c79565b92915050565b600060208284031215612b9057612b8f611c43565b5b6000612b9e84828501612b65565b9150509291505056fe697066733a2f2f516d56706e53627a59653158647945315334517a6359756b6b314d4a3346516836537143757538364165466d70572fa26469706673582212204b5ecc2b9ec3636dca541e1e67b11431cb4053ab0a14c8733212f09895e51fd664736f6c63430008130033",
  "linkReferences": {},
  "deployedLinkReferences": {}
}